:0200000460009A
:100000004643464200000156000000000101020084
:1000100000000000000000000000000000000000E0
:1000200000000000000000000000000000000000D0
:1000300000000000000000000000000000000000C0
:1000400000000000010403000000000000000000A8
:100050000000200000000000000000000000000080
:100060000000000000000000000000000000000090
:100070000000000000000000000000000000000080
:10008000EB04180A063204260000000000000000FD
:10009000050404240000000000000000000000002F
:1000A0000000000000000000000000000000000050
:1000B0000604000000000000000000000000000036
:1000C0000000000000000000000000000000000030
:1000D00020041808000000000000000000000000DC
:1000E0000000000000000000000000000000000010
:1000F0000000000000000000000000000000000000
:1001000000000000000000000000000000000000EF
:100110000204180804200000000000000000000095
:1001200000000000000000000000000000000000CF
:10013000600400000000000000000000000000005B
:1001400000000000000000000000000000000000AF
:10015000000000000000000000000000000000009F
:10016000000000000000000000000000000000008F
:10017000000000000000000000000000000000007F
:10018000000000000000000000000000000000006F
:10019000000000000000000000000000000000005F
:1001A000000000000000000000000000000000004F
:1001B000000000000000000000000000000000003F
:1001C000000100000010000001000000000000001D
:1001D000000000000000000000000000000000001F
:1001E000000000000000000000000000000000000F
:1001F00000000000000000000000000000000000FF
:10020000D4D4D4D4D4D4D4D4D4D4D4D4D4D4D4D4AE
:10100000D10020400020006000000000000000002F
:1010100020100060001000600000000000000000D0
:10102000000000606850000000000000EFBEADDE70
:10103000124880F3088812481249016000F036F81F
:10104000114812490022814201D004C0FBE7104838
:101050001049114A814202D008CA08C0FAE70F4875
:101060004FF47001026842EA01020260BFF34F8F41
:10107000BFF36F8F00F014F800DE00000040002086
:1010800008ED00E0004000204C44002068440020AF
:10109000B84200204C4400206850006088ED00E019
:1010A00040F27F4CC0F2000C6047D4D4204840F29C
:1010B0009C41884219D040F24C418842CCBF1D4A25
:1010C0001D4A1E4B5360136823F0800313601C48B5
:1010D0001C49C1BF1C480A0C8264C1F30F01416462
:1010E000016C41F00401016402E0184815490160F7
:1010F0001748184A824205D01749814202D008CACF
:1011000008C0FAE71548164A824205D015498142BF
:1011100002D008CA08C0FAE71348144A824205D030
:101120001349814202D008CA08C0FAE7704700009C
:10113000240400000080034000C00B4020C528D9D3
:1011400000C00A40AAAAFAFF00400E4060004F44C7
:1011500000000000B8220060E026000000400020EF
:1011600000200060B8420020000020209849006064
:10117000D0062020D4D4D4D4D4D4D4D4D4D4D4D469
:10118000D4D4D4D4D4D4D4D4D4D4D4D4D4D4D4D41F
:10119000D4D4D4D4D4D4D4D4D4D4D4D4D4D4D4D40F
:1011A000D4D4D4D4D4D4D4D4D4D4D4D4D4D4D4D4FF
:1011B000D4D4D4D4D4D4D4D4D4D4D4D4D4D4D4D4EF
:102000000040002031100060B7120000C726000019
:10201000B7120000B7120000B71200000000000065
:10202000000000000000000000000000B7120000E7
:10203000B712000000000000B7120000B712000045
:10204000B7120000B7120000B7120000B71200006C
:10205000B7120000B7120000B7120000B71200005C
:10206000B7120000B7120000B7120000B71200004C
:10207000B7120000B7120000B7120000B71200003C
:10208000B712000000000000000000000000000087
:10209000B7120000B7120000B7120000B71200001C
:1020A000B7120000B7120000B7120000B71200000C
:1020B000B7120000B7120000B7120000B7120000FC
:1020C000B7120000B7120000B7120000B7120000EC
:1020D000B7120000B7120000B7120000B7120000DC
:1020E000B7120000B7120000B7120000B7120000CC
:1020F000B7120000B7120000B7120000B7120000BC
:10210000B7120000B7120000B7120000B7120000AB
:1021100000000000B712000000000000B71200002D
:10212000B7120000B7120000B7120000B71200008B
:10213000B7120000B712000000000000B712000044
:10214000B7120000B7120000B7120000B71200006B
:10215000B7120000B71200000000000000000000ED
:10216000B7120000B7120000B7120000B71200004B
:10217000B7120000B7120000B7120000B71200003B
:10218000B7120000B7120000B7120000B71200002B
:10219000B7120000B7120000B7120000B71200001B
:1021A000B7120000B7120000B7120000B71200000B
:1021B000B7120000B7120000B7120000B7120000FB
:1021C000B7120000B7120000B712000000000000B4
:1021D00017000000B7120000B7120000B71200008D
:1021E000B7120000B7120000B7120000B7120000CB
:1021F000B7120000B7120000B7120000B7120000BB
:10220000B7120000B7120000B7120000B7120000AA
:10221000B7120000B7120000B7120000B71200009A
:10222000B7120000B7120000B7120000B71200008A
:10223000B7120000B7120000B71200000000000043
:1022400000000000B7120000B7120000B712000033
:10225000B7120000B7120000B7120000B71200005A
:10226000B7120000B7120000B7120000B71200004A
:10227000B7120000B7120000B7120000B71200003A
:10228000B7120000B7120000B7120000B71200002A
:10229000B7120000B7120000B7120000B71200001A
:1022A000B7120000B7120000B712000000000000D3
:0822B000B7120000B712000094
:1022B80044F24C400121C2F200000068BFF35F8F76
:1022C80080F8A1107047F0B503AF2DE9000F81B079
:1022D80000F0EFFC00F0FBFC01F0A8FA44F25C4AC5
:1022E8000646C2F2000ABFF35F8F07E06168404606
:1022F800884701F09BFA0646BFF35F8FDAF800B013
:10230800BBF1000F36D0DBE9025900F0B4FCDBE981
:10231800022306F00106801A71EB030014D4012091
:102328008BF81000DBF81800CAF80000DBE9001091
:102338000968884704469BF810003046884601F033
:1023480080FA002CD2D105E000208BF8100030462E
:1023580001F077FA2846494600F0A5FC00F08BFC0E
:10236800401B61EB0900B0F1FF3FC2DC01B0BDE8E2
:10237800000FF0BD304601B0BDE8000FBDE8F040E9
:1023880001F05FBA80B56F4686B044F2402B4FF03B
:102398000008C0F20F0B1AE0DAF84400D0F80090F9
:1023A800D9F8000000284BD040F28020C2F220006B
:1023B800C16803208AF898008AF888008AF884009F
:1023C8008AF8790040F20100C0F20000884744F220
:1023D8004C424FF00109C2F2000201E0BFF32F8F17
:1023E800D2F800A09AF8A0000028F9D00AF1A100BC
:1023F800D0E84F1F0129F1D1C0E8418F0029F7D15A
:10240800BFF35F8F9AF89800A8B19AF8880000285F
:102418006FD0032840F079819AF8840000286BD0A7
:10242800032840F078819AF87900002876D00328AC
:1024380000F0D68075E1DAF89000CAF8940082E0DE
:1024480040F28020C2F22000016840F20100C0F290
:10245800000088470546D9F800000E46D4E9004B2D
:1024680000281EBFC168D9F804008847C9F8084089
:10247800C9F8188089F81080C9E90056DAF8484088
:10248800C9F80CB001F0D2F9BFF35F8F44F2402BCA
:102498002168C0F20F0BB1B3D1E90265D9E9022373
:1024A800961B73EB05062CD48E69002E42D0D6E914
:1024B8000254551B73EB0405354639D4B169A1B3F1
:1024C800D1E90254551B73EB04050FD48E698EB302
:1024D800D6E90254551B73EB040528D4B16921B31E
:1024E800D1E90254551B73EB0405DDD50D46314681
:1024F8001EE0DAE9006434E0DAE90264DAF88050D0
:1025080039E0C9F81810C4F8009001F09AF9DAF81F
:102518004C00C0F8009000F0D3FB45E7DAE914233B
:102528000AF12000DAF874503DE0314602E0354601
:10253800C9F81850C1F8189001F083F9DAF84C007E
:10254800C0F8009030E7D0E900015E4601F01F01B5
:10255800002409FA01F1C0F88C10CAE900B88AF819
:10256800888044F25C458AF88480C2F20005CAE992
:102578000264CAF8805000F07EFB32180AF1100C91
:1025880044EB0103013243F10003CAF874508AF89E
:102598007980264304BF02460B468CE80F000AF1F7
:1025A8002000CAE91423514641F8582F4B6081F89E
:1025B80020802A79002A00F09580524642F86C0F54
:1025C800134642F8040C43F8048FA2F12C0042F899
:1025D8004C8C82F80C9042E9035326C042F8203C08
:1025E80000F049FBDAF84040D4E90023801A61EB97
:1025F8000300B0F1FF3F7FF7CFAEDAF8680001685B
:1026080041B1007C002818BF8AF878809AF87800D1
:1026180068BB54E0DAE918408AF87880056801F068
:1026280005F9BFF35F8F2168E1B18A698D4201D155
:10263800226017E0B2B19542134611D0916989B171
:102648008D4209D08A696AB1954208D0916949B129
:102658008D4201D08A69EDE70B46114600E013462A
:102668009A698A6101F0EDF89AF8780038B3DAE9E6
:102678001840056801F0DAF8BFF35F8F2168E1B10F
:102688008A698D4201D1226017E0B2B195421346A2
:1026980011D0916989B18D4209D08A696AB1954290
:1026A80008D0916949B18D4201D08A69EDE70B469E
:1026B800114600E013469A698A6101F0C2F8DAF817
:1026C80020008AF8788000281EBFC168DAF8240044
:1026D8008847DAF894008AF888908AF884908AF80B
:1026E800799030E701210020019140F25401C2F2B3
:1026F80020010490009140F2C00103900420029050
:10270800C2F22001684601F00BF940F27010C2F2E3
:10271800200001F008FF40F2E000C2F2200001F0C2
:1027280002FF40F2D000C2F2200001F0FCFE80B5AA
:102738006F46B0B001F08AF844F265400121C2F258
:10274800000044F2684401700020ADF8A00044F293
:102758004C40C2F200006946016044F20000C2F237
:102768000004C2F20000A04203D901F073F8A042AD
:1027780003D900F015F8FFF705FE012100202B9181
:1027880040F2AC11C2F220012E902D9004202A9123
:1027980040F2C0112C902AA8C2F2200101F0C0F822
:1027A800F0B503AF4DF8048DADF5836D6C4620464A
:1027B80000F0D5FA04F1340004F1380104F15402B0
:1027C80000F086FC4A98016841F0010101604A98CE
:1027D800016821F002010160309C0021C0F8081155
:1027E800C0F81811C0F82811C0F83811206820F076
:1027F80001002060206840F4004020602068000448
:1028080009D52068000444BF20685FEA004002D56B
:1028180020680004F2D43F20A060206820F0010066
:1028280020603198016821F001010160016841F4DC
:10283800004101600168090409D50168090444BF21
:1028480001685FEA014102D501680904F2D43F2119
:1028580040F263428160016821F001010160009942
:10286800886C40F001008864486C10434864486CE8
:10287800012262F383004864486C20F080004864B9
:10288800886C40F020008864486C40F440404864FC
:10289800486C40F444704864886C40F08000886458
:1028A800886D000709D0886D00071CBF886D5FEA36
:1028B800007002D0886D0007F2D1886C40F02000CB
:1028C8008864486C20F4404048644A6C019822F4BB
:1028D800447202F588724A64816C40F2634241F0A6
:1028E80001018164416C11434164416C012262F32E
:1028F80083014164416C21F080014164816C41F0A5
:1029080020018164416C41F440414164416C41F4CF
:1029180044714164816C41F080018164816D0907D3
:1029280009D0816D09071CBF816D5FEA017102D072
:10293800816D0907F2D1816C02220F234FF00F0835
:1029480041F020018164416C21F440414164416CB3
:1029580021F4447101F5887141645F9970A800F011
:10296800A4FE5A9982A84FF4805200F066FEDDE971
:10297800171286A8299E00F0FAFE4CAB4FF470455A
:102988000FCBA0F88C51A0F88E81A1F88C51A1F83A
:102998008E81A2F88C51A2F88E81A3F88C51A3F8ED
:1029A8008E818696206820F4B860403020602046EA
:1029B80000F024F986A800F07BFB01F01F02012536
:1029C80005FA02F2C0F8842044F24C42C2F2000236
:1029D800126802F1A004D4E84F3F002B40F2D06304
:1029E800C2F2200308D1BFF35F8FC4E8465F76B117
:1029F800D4E84F6F002EF8D0BFF32F8FC3E9000142
:102A080000F026FF0DF5836D5DF8048BF0BD002600
:102A1800BFF35F8F82F898600126C2F89030BFF349
:102A28005F8F82F8A160E9E7006800F019BF80B500
:102A38006F4696B0019044F2B820C2F2000000211F
:102A4800D0E84F2FC0E8431F002BF9D1C2B344F29E
:102A58005440C2F20000006890B340F27970C0F2AE
:102A68000000039001A8029040F24820C2F2200022
:102A780000F0BBF8D0E9001240F2582E8068C2F28C
:102A8800200ECDE90A1202AA01210023CDE9101275
:102A980040F2D812CDE90410781E12914FF00D0CB7
:102AA800CDE90C1E04A9C2F22002CDF820C0CDF851
:102AB8001CE01393CDE90EC20993069300F079F850
:102AC80000F000F880B56F4648F248100521C4F2BE
:102AD8001F004BF2004301603821C0F8F0114CF29E
:102AE8006C00C4F20A0041F6004E01684EF6004C34
:102AF800C0F2C443C0F64E6E21F0080101604CF2EA
:102B08008400C2F2601CC4F21B0050F8801C41F023
:102B1800080140F8801C082101601A46013AFDD1DD
:102B280041601A46013AFDD101601A46013AFDD1C9
:102B380041601A46013AFDD101601A46013AFDD1B9
:102B480041607246013AFDD101607246013AFDD1F9
:102B580041601A46013AFDD101607246013AFDD141
:102B680041601A46013AFDD101607246013AFDD131
:102B780041607246013AFDD101601A46013AFDD121
:102B880041601A46013AFDD101601A46013AFDD169
:102B980041601A46013AFDD101601A46013AFDD159
:102BA80041606246013AFDD1B6E7002070477047A0
:102BB800704744F25040C2F20000026844F2BC2060
:102BC800BFF35F8FC2F20000D0E9003C40F28020E2
:102BD800022A40F26822C2F22000C2F2200208BF94
:102BE800184608BF6246126910477047014640F20E
:102BF8008020C2F22000704700477047016840F209
:102C08000222232321F0010101603F218160016834
:102C18001143016044F258410022C2F20001BFF39F
:102C28005F8F0A60BFF35F8FC3604FF0004303619B
:102C380042610122BFF35F8F0A72BFF35F8F0168A1
:102C480041F001010160016821F00201016040F2D8
:102C58008010C2F220000078012888BF02461020A8
:102C6800C0FA52F14EF20C120901CEF2000282F8BB
:102C7800581310607047B0B502AF00F0D7FD44F2AA
:102C88005841C2F200010C684CF22401C4F21E0142
:102C98000D6800F0D6FD85EAC470610810EBC470B9
:102CA80041F10001B0BD4CF21401C4F21E010860EC
:102CB80070474CF208000221C4F21E000160704700
:102CC8004EF20C201021CEF200000160704780B552
:102CD8006F4686B04CF2080CC4F21E0CDCF800E01B
:102CE8005FEA8E620FD544F25843C2F2000353E8FC
:102CF800002F501C43E800010029F8D12020CCF80F
:102D08000000D00714D05FEACE710FD044F25842C9
:102D1800C2F2000252E8001F481C42E80003002BE0
:102D2800F8D10122C807CCF8002006D106B080BD32
:102D3800002001210490019102E0002001920490FA
:102D480040F2BC210390C2F220010420009140F21D
:102D580028310290C2F22001684600F0E1FDF0B58A
:102D680003AF2DE9000F81B044F264414FF0010C2C
:102D7800C2F20001BFF35F8FD1E84F2FC1E843CF04
:102D8800002BF9D1BFF35F8F002A01BF48F2000181
:102D9800C4F20D010022C4F22F0201BF02F5542C27
:102DA80002F5502E02F54C28A1F5004401BFA1F50B
:102DB800003501F5F61601F5F413C0E9683601BFD0
:102DC800C0E96A54C0E96C8EC0E96EC101F5005EC5
:102DD80001BF01F5805640F2040CC4F22E0C01F537
:102DE800021401BF0CF5FE7501F5004300F5C0782B
:102DF80088E8380001BF00F5C67383E81210C0E9FF
:102E0800666EA1F5404C01BF01F5881E01F58618D4
:102E180001F5841401F5821301BF01F5003602F5AE
:102E28001025C0E9585600F5B47501BF85E81A4168
:102E3800C0F87CC1A1F5804C02F51C2E01BF02F53B
:102E4800182802F51424A1F5E03301F5282601BF5E
:102E580001F5EE15C0E9505600F5A47585E818414E
:102E680001BFC0E9562C02F5782802F5742902F54D
:102E7800702401BF02F56C234CF2000CC4F2070C5D
:102E88000CF5004601BF01F5E03E01F58E15C0E9DD
:102E9800485EC0E94A6101BF00F5987585E81802E7
:102EA800C0F83C8101F5482801BF01F5442901F526
:102EB800402A01F53C2B01F5382301BF01F53424E4
:102EC80001F5302501F52C26C0E9406501BFC0E9B0
:102ED8004243C0E944BAC0E9469802F5302801BF28
:102EE80002F52C2902F5282A02F5242B02F586136F
:102EF80001BF02F5841402F5821502F58016C0E9B7
:102F0800386501BFC0E93A43C0E93CBAC0E93E9818
:102F180001F5F01801BF01F59219A1F5503AA1F594
:102F2800403BA1F5303301BF01F5901401F58C1534
:102F380001F58A16C0E9306501BFC0E93243C0E92E
:102F480034BAC0E9369844F2000B01BFC4F2002B32
:102F58000BF500490BF5804A4FF0844801BF01F595
:102F68006C2601F5682401F56425A1F5C03301BF7D
:102F7800C0E9283500F1A80383E85009C0E92EA963
:102F880001BF01F5602801F5E61901F5E81AA1F578
:102F9800203601BF0BF5E03301F5582401F554251F
:102FA800C0E9205401BF00F1880484E84804C0E95E
:102FB800259EC0F89C8001BFA1F5103E01F5FE18C2
:102FC80001F5001902F5642A01BF02F5602302F534
:102FD8005C2602F5582501F5A03401BF00F1600B0D
:102FE8008BE87000C0E91B3AC0E91D9801BFC0F822
:102FF8007CE001F5803E02F540480CF5804901BFB0
:1030080001F5804A01F5F21344F20806C4F20906F4
:1030180001BF06F1100506F10804C0E91064C0E913
:10302800125301BFC0E914A9C0E9168E0CF5C03EC1
:1030380001F5103801BF01F5801901F57C2401F56F
:10304800782302F57C2601BF02F54825C0E9085619
:1030580000F1280585E8180201BFC0E90D81C0F814
:103068003CE002F5442E02F50C2601BF01F5D2150D
:1030780001F5242402F54022A1F5803301BFA1F512
:10308800A031C0E90013C0E9022C103001BF80E86C
:10309800704001B0BDE8000FF0BD40F2383040F29A
:1030A800CC32C2F22000C2F22002352100F043FCEB
:1030B80048F248110068C4F21F0105230A6863F347
:1030C80003020A60416841F008014160032170472A
:1030D800F0B503AF4DF804BD0E4600211546044671
:1030E80000F077FA284640F2E24100F079FA3046DB
:1030F80000F03AFA40F2FC352146C2F220050022DF
:103108002846366800F021FBA81C2146002200F062
:103118001CFB281D2146002200F017FBA81D214694
:10312800002200F012FB05F108002146002200F001
:103138000CFB05F10A002146002200F006FB05F110
:103148000C002146002200F000FB05F10E0021468C
:10315800002200F0FAFA05F110002146002200F0E2
:10316800F4FA05F112002146002200F0EEFA05F10A
:1031780014002146002200F0E8FA05F11600214665
:10318800002200F0E2FA05F118002146002200F0C2
:10319800DCFA05F11A002146002200F0D6FA05F102
:1031A8001C002146002200F0D0FA05F11E0021463D
:1031B800002200F0CAFA20684169890107D54169EF
:1031C80021F000714161204600F0F4F9206841695E
:1031D800012221F0605141612068816962F30D315B
:1031E8008161204600F0E6F92068416941F00071EC
:1031F8004161204600F0DEF94FF4805030606420D1
:1032080030604FF4005070603068002809D430688E
:1032180000285CBF3068002803D43068B0F1FF3F55
:10322800F2DC20680122016962F302010161204693
:1032380000F0C0F92068416921F4E051416120465D
:1032480000F0B8F92068816941F440218161206863
:10325800416921F000714161204600F0ABF9206816
:1032680040F2D015C2F220050022416941F44071B4
:1032780041612846214600F068FAA81C2146002230
:1032880000F063FA281D2146002200F05EFAA81D0E
:103298002146002200F059FA2068022640F2E01583
:1032A8000022C2F22005816B66F3D8418163206851
:1032B800816B41F4802181632846214600F045FA5C
:1032C800A81C2146002200F040FA281D21460022B1
:1032D80000F03BFAA81D2146002200F036FA2068CB
:1032E80040F21C450322C2F22005816966F30511EC
:1032F80081612068816962F39C6181612846214669
:10330800002200F022FAA81C2146002200F01DFA33
:10331800281D2146002200F018FAA81D2146002287
:1033280000F013FA05F108002146002200F00DFA1A
:103338002068172240F22645C2F22005C16962F3CF
:103348000501C16120680022C16941F04001C161E5
:103358002846214600F0F9F9A81C2146002200F071
:10336800F4F9281D2146002200F0EFF9A81D214696
:10337800002200F0EAF905F108002146002200F0D9
:10338800E4F905F10A002146002200F0DEF905F112
:103398000C002146002200F0D8F905F10E00214664
:1033A800002200F0D2F9206840F23645C2F220052A
:1033B8000322416A41F0400141622068416A66F394
:1033C800050141622846214600F0BFF9A81C2146A4
:1033D800032200F0BAF9281D2146032200F0B5F9AE
:1033E800A81D2146032200F0B0F905F10800214686
:1033F800032200F0AAF905F10A002146032200F091
:10340800A4F905F10C002146032200F09EF905F10C
:103418000E002146032200F098F905F1100021461C
:10342800032200F092F905F112002146032200F070
:103438008CF905F114002146032200F086F905F104
:1034480016002146032200F080F905F118002146F4
:10345800032200F07AF905F11A002146032200F050
:1034680074F905F11C002146032200F06EF905F1FC
:103478001E002146032200F068F905F120002146CC
:10348800032200F062F905F122002146032200F030
:103498005CF905F124002146032200F056F905F1F4
:1034A80026002146032200F050F905F128002146A4
:1034B800032200F04AF905F12A002146032200F010
:1034C80044F905F12C002146032200F03EF905F1EC
:1034D8002E002146032200F038F905F1300021467C
:1034E800032200F032F905F132002146032200F0F0
:1034F8002CF905F134002146032200F026F905F1E4
:1035080036002146032200F020F905F13800214653
:10351800032200F01AF905F13A002146032200F0CF
:1035280014F905F13C002146032200F00EF905F1DB
:103538003E002146032200F008F905F1400021462B
:10354800032200F002F905F142002146032200F0AF
:10355800FCF805F14400214603225DF804BBBDE8F0
:10356800F04000F0F2B8FEE780B56F4600684FF40F
:1035780000514FF480524FF0400C4FF4803E00E071
:10358800416103699B04FBD50369DB0401D44261F3
:10359800F7E70369B3F1FF3FF3DC0369DB0306D404
:1035A80003695B0648BF80BDC0F814C0E9E7C0F8EE
:1035B80018E0E6E7006803E0816C002908BF70475F
:1035C800816C29B1816C00291CBF816C0029F3D161
:1035D80070470068426D22F003021143416570474D
:1035E80040F22762914238BF0A46B2F5487F98BF39
:1035F8004FF44872A2F5487144F2AF7300688AB27A
:103608005A43C368A1EB124189B2490801EB124140
:1036180023F01F0242EA1111C16004E00168B1F110
:10362800FF3FD8BF70470168002905D40168002909
:103638005CBF01680029F1D57047F0B503AF2DE9EB
:10364800000B44F2E043C4F21F031B68C3F30B2EC4
:103658004FEA135CE6451FBF0124C1F88841DBB27D
:103668004FF47A781FBF03FB08F9ACEB0E04D1F8CE
:10367800906149F658651FBFCFF6FF7513FB0853D5
:1036880093FBF4F3C2EA06021FBFC1F8902180E859
:103698000A40C0F80C90BDE8000B18BFF0BD40F21E
:1036A800EC40C2F2200000F02BFFB0B502AF054697
:1036B80008680C4640F480300860086840F0400014
:1036C8000860222063F31340486040F26850C0F25B
:1036D8000C10086240F29510C0F2B2004862DC207B
:1036E800C0F27A0088627D20C0F25800C8624B2080
:1036F800C0F2400008632F20C0F22E0048638863A0
:1037080046F62010C86040F6A31088604FF4C84001
:10371800C8614FF4C860886140F6C410C0F68040A4
:1037280008613F204861086820F0030010430860E2
:10373800086820F480300860C86F4021281D01F017
:10374800B7F810202C606864B0BD03784078096829
:1037580001EB83014000C0B20323D1F868C0834065
:1037680002FA00F02CEA0303184388667047F0B5A4
:1037780003AF2DE9000FADF5057D0DF1040B804673
:103788004FF40071584601F093F844F2C4290DF53E
:10379800017AC2F2000900244E460025D9E96001E9
:1037A800CDE9830150468295819600F019F881ABE6
:1037B8000C3601350FCB4BF804000BEB040010342A
:1037C8000430B4F5007F0EC0E8D101A940464FF49B
:1037D800007201F01BF80DF5057DBDE8000FF0BD86
:1037E8000146406820283FBF896801EB40104FF42C
:1037F800805100223FBF425000F580508280827184
:103808003FBFC2718260C26002613FBF8282C282D2
:10381800826182833CBFC283704780B56F4640F2A5
:103828005C522021C2F2200200F098F8D0B502AF15
:1038380000F013F8012121EA000400F007F82046FF
:10384800D0BD002808BF704700F002B872B67047B4
:1038580062B67047EFF308807047EFF31080704747
:10386800F0B503AF2DE9000F8DB0D1E905BA40F2EC
:103878008851DAF80C608146C2F220010C225846C1
:10388800B04720B101200DB0BDE8000FF0BD40F2F7
:1038980070520021D9F80400C2F2200205910321D8
:1038A800019200F10C0202910DF11C08049142F200
:1038B8009D21C0F20001CDF80C80CDE90A1201AAC1
:1038C8000C9100F10801099142F28B31C0F200011C
:1038D800CDE907015846514600F05EF820B10120B5
:1038E8000DB0BDE8000FF0BD40F294515846C2F249
:1038F80020010222B04720B101200DB0BDE8000F21
:10390800F0BDD9F800C041469CE87D007DC158460D
:103918005146424600F040F80DB0BDE8000FF0BD3A
:1039280080B56F4684B0CDE9010101A80122ADF848
:103938000C20FFF77CF880B56F4688B094460122CA
:10394800019206AA0023CDE90601009204226846E6
:103958006146049303930292FFF7E2FF80B56F4636
:103968008CB0CDE9000100200690022008490291A0
:1039780069460390059008A804900648CDE9090116
:1039880011460B9001A8089002A8FFF7C9FF00BFD5
:10399800A80520209D220000F0B503AF2DE9000FF7
:1039A8008DB0032316698DF8303020230893002347
:1039B800002ECDE90A1309900693049369D0506943
:1039C800002800F09180D2F800A04101D2F808B098
:1039D800013820F078404FF000084FF0000901301E
:1039E8000292039101900AEB09014A683AB1DDE9B4
:1039F80009030968DB689847002840F0858006EBD2
:103A08000800036906EB8900D0E90221057F846973
:103A180008938DF830500B947AB1012A02D15BF8E3
:103A280031203AB1002256F80830CDE90421022BA2
:103A38000AD10FE00BEBC1014968012256F80830A2
:103A4800CDE90421022B05D04168012B07D15BF891
:103A580031200AB1002203E00BEBC10149680122C1
:103A68004369079106920BEBC3015BF833004B687F
:103A780004A99847002847D1039808F1200809F1BC
:103A880008094045AFD1DDE901A25068824530D32D
:103A98003FE0D06840B394680DF11008D2F800B048
:103AA800002604EBC009013820F06040029200F1C2
:103AB800010A0BEBC6014A682AB1DDE90903096866
:103AC800DB68984700BB04EBC6054146D5E9000210
:103AD8009047C8B905F1080001364845E9D1029A6E
:103AE8005068824505D314E04FF0000A50688245BB
:103AF8000FD21268DDE90901CB6852F83A1002EBDF
:103B0800CA025268984720B101200DB0BDE8000FE5
:103B1800F0BD00200DB0BDE8000FF0BDF0B503AF5B
:103B28002DE9000F87B0D7F80C901C4615460029E0
:103B38004ED0D0F81CB02B221BF0010108BF4FF467
:103B4800881201EB090AD7F808805FEA4B7149D55A
:103B5800102C069258D2002C62D004F0030CA20854
:103B68004FF000015ED002F00302CDF8108005F19D
:103B78000108CDE90249A1EB820E6FF00302059519
:103B880008EB0205043295F9033095F9064095F9DA
:103B9800056013F1410F95F90450C8BF01310EEBD0
:103BA800020315F1410FC8BF013116F1410FC8BF1B
:103BB800013114F1410FC8BF01310433E0D1DDE90F
:103BC80004850432DDE90249BCF1000F2ED145E03D
:103BD800D0F81CB009F1010A2D22D7F808805FEA55
:103BE8004B71B5D400250168E9BB2146D0E90546EB
:103BF800009131462B46204600F0F1F860B10120D3
:103C080007B0BDE8000FF0BD06462846214600F083
:103C18000CFA0146304621E0F3682046414678E038
:103C280000211BE00022BCF1000F17D0AB5613F1A6
:103C3800410FC8BF0131BCF1010F0FD02A4492F9DE
:103C4800013013F1410FC8BF0131BCF1020F05D09B
:103C580092F9022012F1410FC8BF0131069A8A4435
:103C680001680029C1D0CDE90485D0F80480D04589
:103C780012D95FEA0B711ED490F82010A8EB0A0342
:103C88000692CA46A3469946DFE801F05B02550250
:103C980049464FF0000954E02146D0E90546009115
:103CA8003146059B204600F09AF878B3012007B00A
:103CB800BDE8000FF0BD3021D0F810B023460161F7
:103CC800012190F82050D0E9054680F820103146AF
:103CD800039000932046059B00F081F801460120DF
:103CE80000297FF48DAF0695A8EB0A00DDF8108057
:103CF800451C013D14D032692046302190470028E8
:103D0800F7D0012007B0BDE8000FF0BDF3682046EA
:103D180004994A4607B0BDE8000FBDE8F0401847CF
:103D2800F368204641464A469847B8B3012007B091
:103D3800BDE8000FF0BD09F101024FEA59014FEA51
:103D48005209D0E904644D1CD0F81880013D0BD00D
:103D5800D8F810202046314690470028F6D0012098
:103D680007B0BDE8000FF0BDCDF800B02046DDE992
:103D78000532414600F033F820B1012007B0BDE814
:103D8800000FF0BDD8F80C302046049952469847E9
:103D980078B1012007B0BDE8000FF0BD039806997F
:103DA80080F82010C0F810B0002007B0BDE8000F60
:103DB800F0BD0025A94509D0D8F810202046314685
:103DC800904701350028F5D0691E00E049460020DB
:103DD800494538BF012007B0BDE8000FF0BDF0B578
:103DE80003AF4DF8048DD7F808801C460E46B2F58F
:103DF800881F0AD033691146054698470146284668
:103E080019B101205DF8048BF0BD3CB1F36821467F
:103E180042465DF8048BBDE8F040184700205DF885
:103E2800048BF0BDF0B503AF2DE9000F81B00D464E
:103E3800D0F800C08168BCF1000F08BF5FEAC17309
:103E480037D0C90730D0C66805EB020E4FF000081E
:103E58002946E6B9714527D091F90010B1F1FF3F25
:103E6800DCBFC9B2E029B8F1000F26D0904523D2B3
:103E780015F9081011F1400F1FDA00211EE0F02992
:103E88002CBF211DE11C0B1B013E9844E2D071455B
:103E98000AD00C4611F9013BB3F1FF3FF3DCD9B26C
:103EA800E029ECD2A11CEEE79046BCF1000F0CD142
:103EB8007DE0D0E905017DE0DFD1294600290CBF6E
:103EC80090460D46BCF1000F71D0D0F80490B8F1BF
:103ED800100F37D2B8F1000F3CD008F0030C5FEA9E
:103EE80098024FF0000137D002F0030205F1010AF1
:103EF800AB46A1EB820E6FF003020AEB0204043218
:103F080094F9036094F9063094F9055016F1410FBD
:103F180094F90440C8BF013114F1410FC8BF013101
:103F280015F1410FC8BF013113F1410F0EEB020328
:103F3800C8BF01310433E0D104325D46BCF1000F43
:103F48000ED125E006462846414600F06EF80146A7
:103F580030461DE000211BE00022BCF1000F17D005
:103F6800AB5613F1410FC8BF0131BCF1010F0FD09F
:103F78002A4492F9013013F1410FC8BF0131BCF155
:103F8800020F05D092F9022012F1410FC8BF01318A
:103F980089450CD990F82020A9EB01090021DFE818
:103FA80002F01702111749464FF0000910E0D0E956
:103FB80005014246CB68294601B0BDE8000FBDE8BF
:103FC800F040184709F101024FEA59014FEA520936
:103FD800D0E904AB4C1C8669013C06D032695846CE
:103FE800514690470028F7D005E0F368584629461F
:103FF8004246984720B1012001B0BDE8000FF0BD4E
:104008000025A94508D032695846514690470135E0
:104018000028F6D0691E00E049460020494538BF0F
:10402800012001B0BDE8000FF0BDF0B503AF2DE9E8
:10403800000F82B08146033020F0030AAAEB09087A
:10404800414535D2002946D001F0030C8A084FF0CB
:10405800000000F03182A0EB820E09F101066FF03A
:1040680003057319043593F9031093F9064093F97E
:10407800052011F1410F93F90430C8BF01300EEB50
:10408800050113F1410FC8BF013012F1410FC8BF3C
:10409800013014F1410FC8BF01300431E1D12A1DAC
:1040A800BCF1000F40F00D8202B0BDE8000FF0BD7A
:1040B800A1EB080E5FEA9E0CC4D00EF00302CA45BD
:1040C80001D100204CE0A9EB0A0010F1040F07D938
:1040D8000020002528E0002002B0BDE8000FF0BD58
:1040E80009F1010B00206FF003060BEB060595F9AB
:1040F800034095F9063095F9051014F1410F95F92B
:104108000450C8BF013015F1410FC8BF013011F18B
:10411800410FC8BF013013F1410FC8BF013016F17C
:10412800080506F10406E0D1CA4519D019F90510A9
:1041380011F1410FC8BF0130B8F1010F10D009EBE0
:10414800050191F9013013F1410FC8BF0130B8F1F1
:10415800020F05D091F9021011F1410FC8BF0130CB
:1041680009EB08040023C2B12EF00301214491F9A0
:10417800006016F1410FC8BF0123012A0DD091F943
:10418800016016F1410FC8BF0133022A05D091F929
:10419800021011F1410FC8BF0133184412E04FF06B
:1041A80000083FFA88F23FFA98F31A44ACEB0B0C7C
:1041B8000AEB8B041BF0030102EB024200EB1240F6
:1041C80040F04981BCF1000F3FF46EAFBCF1C00F65
:1041D800E34628BF4FF0C00BA246BCF1040FDED364
:1041E8006FF00F01012201EB8B01302902EB111254
:1041F800CDE9002A03D24FF000085446ABE022F084
:1042080003094FF00008544694E80E04B9F1040974
:10421800A6696FEA010E4FEADE1545EA91116FEAC9
:10422800020521F0FE314FEAD51545EA92124144C4
:1042380022F0FE320A446FEA03014FEAD11545EA3B
:10424800931323F0FE3325691A446FEA0A034FEAF1
:10425800D313616943EA9A13D4F8388023F0FE3304
:10426800D4F83CE01A446FEA05034FEAD31343EA53
:104278009513E56923F0FE331A446FEA01034FEA08
:10428800D31343EA911121F0FE31236A11446FEAF6
:1042980006024FEAD21242EA9612666A22F0FE320B
:1042A80011446FEA05024FEAD21242EA9512A56A52
:1042B80022F0FE3211446FEA03024FEAD21242EAB8
:1042C8009312E36A22F0FE3211446FEA06024FEAC3
:1042D800D21242EA9612266B22F0FE3211446FEA9D
:1042E80005024FEAD21242EA9512656B22F0FE32BD
:1042F80004F1400411446FEA03024FEAD21242EA81
:10430800931222F0FE3211446FEA06024FEAD212EB
:1043180042EA961222F0FE3211446FEA05024FEA91
:10432800D21242EA951222F0FE3211446FEA0802D4
:104338004FEAD21242EA981222F0FE3211446FEA92
:104348000E024FEAD21242EA9E1222F0FE3202EB2D
:1043580001087FF459AF0099DDF804A011F0030EAD
:104368003FF41FAF94E84C00BEF1010FE5686FEA17
:1043780002014FEAD11141EA92116FEA03024FEAB2
:10438800D21221F0FE3142EA9312414422F0FE3269
:1043980011446FEA06024FEAD21242EA961222F05C
:1043A800FE3211446FEA05024FEAD21242EA951230
:1043B80022F0FE3202EB01083FF4F3AE04F11005DF
:1043C800BEF1020F2ECD6FEA01064FEAD61646EA75
:1043D80091116FEA020621F0FE314FEAD61646EA3D
:1043E8009212414422F0FE3211446FEA03024FEA6E
:1043F800D21242EA931222F0FE3211446FEA050209
:104408004FEAD21242EA951222F0FE3202EB01087C
:104418003FF4C7AE04F120064ECECD43ED0945EA80
:104428009111D54321F0FE31ED0945EA921241443C
:1044380022F0FE321144DA43D20942EA931222F002
:10444800FE321144F243D20942EA961222F0FE32B9
:1044580002EB0108A5E60BF0FC0301295AF823201A
:104468006FEA02064FEAD61646EA921222F0FE32A8
:1044780015D00AEB830302295E686FEA06054FEA46
:10448800D51545EA961626F0FE36324407D09968C7
:10449800CB43DB0943EA911121F0FE310A443FFA8C
:1044A80082F13FFA92F2114401EB014100EB114015
:1044B80002B0BDE8000FF0BD0022BCF1000F3FF4D0
:1044C800F3AD19F9021011F1410FC8BF0130BCF169
:1044D800010F3FF4E9AD4A4492F9011011F1410F7F
:1044E800C8BF0130BCF1020F3FF4DEAD92F90210F3
:1044F80011F1410FC8BF013002B0BDE8000FF0BD97
:1045080080B56F4686B001460020012204900192D2
:1045180040F29C6203900420C2F220020290684696
:104528000092FFF7FDF980B56F4686B0014600207E
:1045380001220490019240F2C86203900420C2F262
:104548002002029068460092FFF7EAF9F0B503AF3F
:104558002DE9000F87B0046840F2B85042F2107E8F
:104568000D467445C2F220003DD341F259784EF20F
:10457800FF03A7F1260B0021CDF2B71841F27B49C2
:104588004FF0640AC0F2F5530395A4FB08250BEB22
:10459800010C04399C424FEA553202FB1E45144671
:1045A800AEB24FEA960606FB09F64FEA564606FBF8
:1045B8001A5530F81660ACF80660ADB230F81550F0
:1045C800ACF80850E1D8039D01F10A031446632CA6
:1045D8000CD821460A291BD330F811009A1EA7F1DE
:1045E800260188521AE00A23632CF2D9A1B241F2BB
:1045F8007B428908023B51436422A7F12606490CF5
:1046080001FB124292B230F81220F2520A29E3D288
:1046180041F030005A1EA7F126018854C2F10A0061
:10462800114401220023CDE9001028460121FFF79B
:1046380075FA07B0BDE8000FF0BD0B46D0E90012CF
:104648001846FFF7EFBBF0B503AF2DE90007102AB6
:104658001ED3434203F0030800EB0803834233D917
:10466800A8F1010CB8F1000F06460D461AD00D4608
:10467800064615F801EBB8F1010F06F801EB11D069
:104688004E78B8F1020F467008D18D1C861C09E0DF
:1046980084460CEB02039C453ED36AE08E78CD1C21
:1046A8008670C61CBCF1030F0ED3043D043E15F8FA
:1046B800044F06F8044F6C787470AC78B470EC78DA
:1046C800F470341D9C42F2D1A2EB080E41442EF046
:1046D800030203EB020C8C0758D1634515D20C4634
:1046E800256843F8045B63450FD2656843F8045BAB
:1046F80063453EBFA56843F8045B634505D2E5689A
:10470800103443F8045B6345EAD311440EF0030206
:104718000CEB02039C452CD212F00304A2F1010E0B
:1047280013D00E46654616F8012B012C05F8012B0F
:104738000DD04A78022C8CF801201DD18E1C0CF16A
:104748000205BEF1030F05D213E065460E46BEF121
:10475800030F0ED3311F2A1F11F8046F02F8046FDC
:104768004E7856708E789670CE78D670161D9E420A
:10477800F2D1BDE80007F0BDCE1C0CF103058A7824
:104788008CF80220BEF1030FE4D2F2E76345BCD2F5
:10479800182421F0030604EAC108CC00C4F100097A
:1047A800346806F1080509F0180955F8046C24FA6C
:1047B80008FA06FA09F444EA0A0443F8044B634584
:1047C800A3D22C6826FA08FA04FA09F646EA0A0679
:1047D80043F8046B63453FBF6E6824FA08FA06FA8B
:1047E80009F444EA0A043CBF43F8044B6345BFF4A8
:1047F8008CAFAC6826FA08FA103504FA09F646EACE
:104808000A0643F8046B6345CFD37EE7042A18D31E
:10481800B0B502AFA2F1040E012303EB9E0313F01F
:10482800030414D00B46844653F8045B012C4CF85F
:10483800045B10D1604619467246BEF10C0F1CD2BB
:1048480030E00B46844660461946FFF7FCBEBEF1D1
:104858000C0F12D226E04B68022C436003D1083AB1
:104868000831083004E08B680C3A83600C310C3056
:1048780084460B46BEF10C0F14D384460B461868C9
:10488800103ACCF80000032A5868CCF8040098685D
:10489800CCF80800D86803F11003CCF80C000CF130
:1048A800100CECD8BDE8B04060461946FFF7CBBE07
:1048B80080B56F46042914D3A1F1040C012202EB40
:1048C8009C0212F003030ED04FF0000E024642F88D
:1048D80004EB012B0BD110466146BCF10C0F19D229
:1048E80022E0024620E0BCF10C0F13D21CE0022BA0
:1048F800C0F804E006D1083908300246BCF10C0FB4
:1049080008D211E000220C3982600C300246BCF15A
:104918000C0F09D3002302461039C2E90033C2E95B
:10492800023310320329F7D85018824222D211F0EC
:10493800030CA1F101010ED04FF0000E134603F84D
:1049480001EBBCF1010F0BD0BCF1020F82F801E0C2
:1049580003D1931C04E0134602E000239370D31C98
:10496800032938BF80BD191F002241F8042F0B1DF1
:104978008342FAD180BD70460421084203D1EFF387
:10498800088000F004B8EFF3098000F000B8FEE7F3
:104998005468652074696D65722071756575652048
:1049A8006973206E6F7420696E697469616C697AC5
:1049B800656420776974682061206D6F6E6F746F0D
:1049C8006E69632C20796F75206E65656420746F3D
:1049D8002072756E2060696E697469616C697A65A8
:1049E8006000000000002020510000002F686F6D5B
:1049F800652F6C756369612F2E636172676F2F7203
:104A0800656769737472792F7372632F696E646551
:104A1800782E6372617465732E696F2D366631372F
:104A28006432326262613135303031662F727469B6
:104A3800632D74696D652D322E302E302F7372639D
:104A48002F74696D65725F71756575652E72730077
:104A58005C00202063000000DA0000000D00000068
:104A68005C00202063000000D80000003E00000029
:104A78005C00202063000000CB000000390000002B
:104A88002F686F6D652F6C756369612F2E63617276
:104A9800676F2F72656769737472792F7372632FEA
:104AA800696E6465782E6372617465732E696F2D03
:104AB80036663137643232626261313530303166A0
:104AC8002F727469632D74696D652D322E302E3006
:104AD8002F7372632F6D6F6E6F746F6E69632F74AF
:104AE800696D65725F71756575655F62617365642F
:104AF8005F6D6F6E6F746F6E69632E727300000066
:104B0800F00020207D000000200000002E000000A2
:104B180010537461636B206F766572666C6F7720D3
:104B2800616674657220616C6C6F636174696E672D
:104B3800206578656375746F7273000081012020A9
:104B4800290000007372632F6D61696E2E72730005
:104B5800B40120200B0000000D000000010000003F
:104B6800020302040205060C010000000000000018
:104B780001000101010201032F686F6D652F6C753B
:104B88006369612F2E636172676F2F72656769733E
:104B98007472792F7372632F696E6465782E6372ED
:104BA800617465732E696F2D3666313764323262EF
:104BB80062613135303031662F7465656E737934D2
:104BC8002D70616E69632D302E322E332F73726310
:104BD8002F6C69622E727300E80120205F000000CC
:104BE800C90000000D0000007465656E7379345FBC
:104BF80070616E69630000000000000000000000A2
:104C080001000000FB080000FF0800000109000087
:104C18003D09000049090000490900004B0900004E
:104C28004D6F6E6F746F6E6963206D757374206855
:104C380061766520736B697070656420616E2069A8
:104C48006E746572727570742100000090022020E5
:104C5800290000002F686F6D652F6C756369612FDF
:104C68002E636172676F2F72656769737472792F2B
:104C78007372632F696E6465782E637261746573ED
:104C88002E696F2D36663137643232626261313592
:104C9800303031662F727469632D6D6F6E6F746F6B
:104CA8006E6963732D322E302E332F7372632F6922
:104CB8006D7872742E727300C402202063000000A5
:104CC8000801000001000000617373657274696F68
:104CD8006E206661696C65643A202154414B454EEB
:104CE8002E7377617028747275652C204F72646515
:104CF80072696E673A3A536571437374292F686F06
:104D08006D652F6C756369612F2E636172676F2FF4
:104D180072656769737472792F7372632F696E6431
:104D280065782E6372617465732E696F2D366631EE
:104D3800376432326262613135303031662F7465E2
:104D4800656E7379342D6273702D302E352E312FA8
:104D58007372632F626F6172642E72736D03202009
:104D68005F000000B100000005000000696E646586
:104D780078206F7574206F6620626F756E64733A61
:104D880020746865206C656E206973200108010431
:104D9800050304080409040A040B010D000F020DA1
:104DA8000306010F0606050F050E06000106010A97
:104DB800000C010B000D050C000E0006010C030190
:104DC8000303050D06070106010A000C010B000D7F
:104DD800010D000F020D030606000503050F050E61
:104DE8000203020501000101010201030303010C92
:104DF800000E00060607050C04080409040A040B43
:104E08000501030007060108010406062F686F6DF7
:104E1800652F6C756369612F2E636172676F2F72DE
:104E2800656769737472792F7372632F696E64652D
:104E3800782E6372617465732E696F2D366631370B
:104E48006432326262613135303031662F696D7893
:104E580072742D68616C2D302E352E392F73726364
:104E68002F636869702F696D787274313078782F84
:104E780074656D706D6F6E2E727300007C04202057
:104E88006E0000009F000000160000002F686F6D84
:104E9800652F6C756369612F2E636172676F2F725E
:104EA800656769737472792F7372632F696E6465AD
:104EB800782E6372617465732E696F2D366631378B
:104EC8006432326262613135303031662F696D7813
:104ED80072742D646D612D302E312E312F737263F3
:104EE8002F6368616E6E656C2E727300FC0420205F
:104EF8005F000000670000000A0000003A000000A0
:104F080001000000000000006C05202001000000E6
:104F18006C0520200100000070616E69636B656498
:104F2800206174203A0A20627574207468652069CB
:104F38006E64657820697320DC032020200000005F
:104F480096052020120000003030303130323033E6
:104F5800303430353036303730383039313031311F
:104F68003132313331343135313631373138313905
:104F780032303231323232333234323532363237FD
:104F880032383239333033313332333333343335E3
:104F980033363337333833393430343134323433C9
:104FA80034343435343634373438343935303531AF
:104FB8003532353335343535353635373538353995
:104FC800363036313632363336343635363636378D
:104FD8003638363937303731373237333734373573
:104FE8003736373737383739383038313832383359
:104FF800383438353836383738383839393039313F
:105008003932393339343935393639373938393924
:10501800617474656D707420746F20646976696456
:1050280065206279207A65726F0000008006202072
:1050380019000000606173796E6320666E602072EB
:105048006573756D656420616674657220636F6D44
:10505800706C6574696F6E00A40620202300000040
:10506800010000000100000068022020000000008C
:105078000000000000000000000000000000000028
:105088000000000000000000000000000000000018
:105098000000000000000000000000000000000008
:1050A80000000000000000000000000000000000F8
:1050B80000000000000000000000000000000000E8
:1050C80000000000000000000000000000000000D8
:1050D80000000000000000000000000000000000C8
:1050E80000000000000000000000000000000000B8
:1050F80000000000000000000000000000000000A8
:105108000000000000000000000000000000000097
:105118000000000000000000000000000000000087
:105128000000000000000000000000000000000077
:105138000000000000000000000000000000000067
:105148000000000000000000000000000000000057
:105158000000000000000000000000000000000047
:105168000000000000000000000000000000000037
:105178000000000000000000000000000000000027
:105188000000000000000000000000000000000017
:105198000000000000000000000000000000000007
:1051A80000000000000000000000000000000000F7
:1051B80000000000000000000000000000000000E7
:1051C80000000000000000000000000000000000D7
:1051D80000000000000000000000000000000000C7
:1051E80000000000000000000000000000800E40E9
:0451F80000C00E40A5
:040000056000103156
:00000001FF
